{
  "_format": "hh-sol-artifact-1",
  "contractName": "NFTMarketplace",
  "sourceName": "contracts/NFTMarketplace.sol",
  "abi": [
    {
      "inputs": [],
      "stateMutability": "nonpayable",
      "type": "constructor"
    },
    {
      "anonymous": false,
      "inputs": [
        {
          "indexed": true,
          "internalType": "address",
          "name": "owner",
          "type": "address"
        },
        {
          "indexed": true,
          "internalType": "address",
          "name": "approved",
          "type": "address"
        },
        {
          "indexed": true,
          "internalType": "uint256",
          "name": "tokenId",
          "type": "uint256"
        }
      ],
      "name": "Approval",
      "type": "event"
    },
    {
      "anonymous": false,
      "inputs": [
        {
          "indexed": true,
          "internalType": "address",
          "name": "owner",
          "type": "address"
        },
        {
          "indexed": true,
          "internalType": "address",
          "name": "operator",
          "type": "address"
        },
        {
          "indexed": false,
          "internalType": "bool",
          "name": "approved",
          "type": "bool"
        }
      ],
      "name": "ApprovalForAll",
      "type": "event"
    },
    {
      "anonymous": false,
      "inputs": [
        {
          "indexed": true,
          "internalType": "uint256",
          "name": "tokenId",
          "type": "uint256"
        },
        {
          "indexed": false,
          "internalType": "address",
          "name": "seller",
          "type": "address"
        },
        {
          "indexed": false,
          "internalType": "address",
          "name": "owner",
          "type": "address"
        },
        {
          "indexed": false,
          "internalType": "uint256",
          "name": "price",
          "type": "uint256"
        },
        {
          "indexed": false,
          "internalType": "bool",
          "name": "sold",
          "type": "bool"
        }
      ],
      "name": "MarketItemCreated",
      "type": "event"
    },
    {
      "anonymous": false,
      "inputs": [
        {
          "indexed": true,
          "internalType": "address",
          "name": "from",
          "type": "address"
        },
        {
          "indexed": true,
          "internalType": "address",
          "name": "to",
          "type": "address"
        },
        {
          "indexed": true,
          "internalType": "uint256",
          "name": "tokenId",
          "type": "uint256"
        }
      ],
      "name": "Transfer",
      "type": "event"
    },
    {
      "inputs": [
        {
          "internalType": "uint256",
          "name": "tokenId",
          "type": "uint256"
        }
      ],
      "name": "Royality",
      "outputs": [],
      "stateMutability": "payable",
      "type": "function"
    },
    {
      "inputs": [
        {
          "internalType": "address",
          "name": "to",
          "type": "address"
        },
        {
          "internalType": "uint256",
          "name": "tokenId",
          "type": "uint256"
        }
      ],
      "name": "approve",
      "outputs": [],
      "stateMutability": "nonpayable",
      "type": "function"
    },
    {
      "inputs": [
        {
          "internalType": "address",
          "name": "owner",
          "type": "address"
        }
      ],
      "name": "balanceOf",
      "outputs": [
        {
          "internalType": "uint256",
          "name": "",
          "type": "uint256"
        }
      ],
      "stateMutability": "view",
      "type": "function"
    },
    {
      "inputs": [
        {
          "internalType": "uint256",
          "name": "_tokenId",
          "type": "uint256"
        }
      ],
      "name": "bid",
      "outputs": [],
      "stateMutability": "payable",
      "type": "function"
    },
    {
      "inputs": [
        {
          "internalType": "uint256",
          "name": "",
          "type": "uint256"
        },
        {
          "internalType": "address",
          "name": "",
          "type": "address"
        }
      ],
      "name": "bids",
      "outputs": [
        {
          "internalType": "uint256",
          "name": "",
          "type": "uint256"
        }
      ],
      "stateMutability": "view",
      "type": "function"
    },
    {
      "inputs": [
        {
          "internalType": "uint256",
          "name": "tokenId",
          "type": "uint256"
        }
      ],
      "name": "cancelAuction",
      "outputs": [],
      "stateMutability": "nonpayable",
      "type": "function"
    },
    {
      "inputs": [
        {
          "internalType": "uint256",
          "name": "tokenId",
          "type": "uint256"
        },
        {
          "internalType": "uint256",
          "name": "auctionPrice",
          "type": "uint256"
        }
      ],
      "name": "createAuctionToken",
      "outputs": [],
      "stateMutability": "payable",
      "type": "function"
    },
    {
      "inputs": [
        {
          "internalType": "uint256",
          "name": "tokenId",
          "type": "uint256"
        },
        {
          "internalType": "uint256",
          "name": "price",
          "type": "uint256"
        }
      ],
      "name": "createMarketItem",
      "outputs": [],
      "stateMutability": "payable",
      "type": "function"
    },
    {
      "inputs": [
        {
          "internalType": "uint256",
          "name": "tokenId",
          "type": "uint256"
        }
      ],
      "name": "createMarketSale",
      "outputs": [],
      "stateMutability": "payable",
      "type": "function"
    },
    {
      "inputs": [
        {
          "internalType": "string",
          "name": "tokenURI",
          "type": "string"
        },
        {
          "internalType": "uint256",
          "name": "price",
          "type": "uint256"
        }
      ],
      "name": "createToken",
      "outputs": [
        {
          "internalType": "uint256",
          "name": "",
          "type": "uint256"
        }
      ],
      "stateMutability": "nonpayable",
      "type": "function"
    },
    {
      "inputs": [
        {
          "internalType": "uint256",
          "name": "_tokenId",
          "type": "uint256"
        }
      ],
      "name": "executeSale",
      "outputs": [],
      "stateMutability": "payable",
      "type": "function"
    },
    {
      "inputs": [],
      "name": "fetchItemsListed",
      "outputs": [
        {
          "components": [
            {
              "internalType": "uint256",
              "name": "tokenId",
              "type": "uint256"
            },
            {
              "internalType": "address payable",
              "name": "seller",
              "type": "address"
            },
            {
              "internalType": "address payable",
              "name": "owner",
              "type": "address"
            },
            {
              "internalType": "address payable",
              "name": "minter",
              "type": "address"
            },
            {
              "internalType": "uint256",
              "name": "price",
              "type": "uint256"
            },
            {
              "internalType": "uint256",
              "name": "auctionprice",
              "type": "uint256"
            },
            {
              "internalType": "bool",
              "name": "sold",
              "type": "bool"
            },
            {
              "internalType": "bool",
              "name": "isActive",
              "type": "bool"
            }
          ],
          "internalType": "struct NFTMarketplace.MarketItem[]",
          "name": "",
          "type": "tuple[]"
        }
      ],
      "stateMutability": "view",
      "type": "function"
    },
    {
      "inputs": [],
      "name": "fetchMarketItems",
      "outputs": [
        {
          "components": [
            {
              "internalType": "uint256",
              "name": "tokenId",
              "type": "uint256"
            },
            {
              "internalType": "address payable",
              "name": "seller",
              "type": "address"
            },
            {
              "internalType": "address payable",
              "name": "owner",
              "type": "address"
            },
            {
              "internalType": "address payable",
              "name": "minter",
              "type": "address"
            },
            {
              "internalType": "uint256",
              "name": "price",
              "type": "uint256"
            },
            {
              "internalType": "uint256",
              "name": "auctionprice",
              "type": "uint256"
            },
            {
              "internalType": "bool",
              "name": "sold",
              "type": "bool"
            },
            {
              "internalType": "bool",
              "name": "isActive",
              "type": "bool"
            }
          ],
          "internalType": "struct NFTMarketplace.MarketItem[]",
          "name": "",
          "type": "tuple[]"
        }
      ],
      "stateMutability": "view",
      "type": "function"
    },
    {
      "inputs": [],
      "name": "fetchMyNFTs",
      "outputs": [
        {
          "components": [
            {
              "internalType": "uint256",
              "name": "tokenId",
              "type": "uint256"
            },
            {
              "internalType": "address payable",
              "name": "seller",
              "type": "address"
            },
            {
              "internalType": "address payable",
              "name": "owner",
              "type": "address"
            },
            {
              "internalType": "address payable",
              "name": "minter",
              "type": "address"
            },
            {
              "internalType": "uint256",
              "name": "price",
              "type": "uint256"
            },
            {
              "internalType": "uint256",
              "name": "auctionprice",
              "type": "uint256"
            },
            {
              "internalType": "bool",
              "name": "sold",
              "type": "bool"
            },
            {
              "internalType": "bool",
              "name": "isActive",
              "type": "bool"
            }
          ],
          "internalType": "struct NFTMarketplace.MarketItem[]",
          "name": "",
          "type": "tuple[]"
        }
      ],
      "stateMutability": "view",
      "type": "function"
    },
    {
      "inputs": [
        {
          "internalType": "uint256",
          "name": "tokenId",
          "type": "uint256"
        }
      ],
      "name": "getApproved",
      "outputs": [
        {
          "internalType": "address",
          "name": "",
          "type": "address"
        }
      ],
      "stateMutability": "view",
      "type": "function"
    },
    {
      "inputs": [
        {
          "internalType": "uint256",
          "name": "_tokenId",
          "type": "uint256"
        }
      ],
      "name": "getListingDetails",
      "outputs": [
        {
          "components": [
            {
              "internalType": "uint256",
              "name": "tokenId",
              "type": "uint256"
            },
            {
              "internalType": "address payable",
              "name": "seller",
              "type": "address"
            },
            {
              "internalType": "address payable",
              "name": "owner",
              "type": "address"
            },
            {
              "internalType": "address payable",
              "name": "minter",
              "type": "address"
            },
            {
              "internalType": "uint256",
              "name": "price",
              "type": "uint256"
            },
            {
              "internalType": "uint256",
              "name": "auctionprice",
              "type": "uint256"
            },
            {
              "internalType": "bool",
              "name": "sold",
              "type": "bool"
            },
            {
              "internalType": "bool",
              "name": "isActive",
              "type": "bool"
            }
          ],
          "internalType": "struct NFTMarketplace.MarketItem",
          "name": "",
          "type": "tuple"
        }
      ],
      "stateMutability": "view",
      "type": "function"
    },
    {
      "inputs": [],
      "name": "getListingPrice",
      "outputs": [
        {
          "internalType": "uint256",
          "name": "",
          "type": "uint256"
        }
      ],
      "stateMutability": "view",
      "type": "function"
    },
    {
      "inputs": [
        {
          "internalType": "uint256",
          "name": "_tokenId",
          "type": "uint256"
        }
      ],
      "name": "getTokenAuctionDetails",
      "outputs": [
        {
          "components": [
            {
              "internalType": "uint256",
              "name": "maxBid",
              "type": "uint256"
            },
            {
              "internalType": "address",
              "name": "maxBidUser",
              "type": "address"
            },
            {
              "internalType": "bool",
              "name": "isActive",
              "type": "bool"
            },
            {
              "internalType": "uint256[]",
              "name": "bidAmounts",
              "type": "uint256[]"
            },
            {
              "internalType": "address[]",
              "name": "users",
              "type": "address[]"
            }
          ],
          "internalType": "struct NFTMarketplace.tokenDetails",
          "name": "",
          "type": "tuple"
        }
      ],
      "stateMutability": "view",
      "type": "function"
    },
    {
      "inputs": [
        {
          "internalType": "address",
          "name": "owner",
          "type": "address"
        },
        {
          "internalType": "address",
          "name": "operator",
          "type": "address"
        }
      ],
      "name": "isApprovedForAll",
      "outputs": [
        {
          "internalType": "bool",
          "name": "",
          "type": "bool"
        }
      ],
      "stateMutability": "view",
      "type": "function"
    },
    {
      "inputs": [
        {
          "internalType": "uint256",
          "name": "_tokenId",
          "type": "uint256"
        }
      ],
      "name": "maxBidWithdraw",
      "outputs": [],
      "stateMutability": "nonpayable",
      "type": "function"
    },
    {
      "inputs": [],
      "name": "name",
      "outputs": [
        {
          "internalType": "string",
          "name": "",
          "type": "string"
        }
      ],
      "stateMutability": "view",
      "type": "function"
    },
    {
      "inputs": [
        {
          "internalType": "address",
          "name": "",
          "type": "address"
        },
        {
          "internalType": "address",
          "name": "",
          "type": "address"
        },
        {
          "internalType": "uint256",
          "name": "",
          "type": "uint256"
        },
        {
          "internalType": "bytes",
          "name": "",
          "type": "bytes"
        }
      ],
      "name": "onERC721Received",
      "outputs": [
        {
          "internalType": "bytes4",
          "name": "",
          "type": "bytes4"
        }
      ],
      "stateMutability": "nonpayable",
      "type": "function"
    },
    {
      "inputs": [
        {
          "internalType": "uint256",
          "name": "tokenId",
          "type": "uint256"
        }
      ],
      "name": "ownerOf",
      "outputs": [
        {
          "internalType": "address",
          "name": "",
          "type": "address"
        }
      ],
      "stateMutability": "view",
      "type": "function"
    },
    {
      "inputs": [
        {
          "internalType": "uint256",
          "name": "tokenId",
          "type": "uint256"
        },
        {
          "internalType": "uint256",
          "name": "price",
          "type": "uint256"
        }
      ],
      "name": "resellToken",
      "outputs": [],
      "stateMutability": "payable",
      "type": "function"
    },
    {
      "inputs": [
        {
          "internalType": "address",
          "name": "from",
          "type": "address"
        },
        {
          "internalType": "address",
          "name": "to",
          "type": "address"
        },
        {
          "internalType": "uint256",
          "name": "tokenId",
          "type": "uint256"
        }
      ],
      "name": "safeTransferFrom",
      "outputs": [],
      "stateMutability": "nonpayable",
      "type": "function"
    },
    {
      "inputs": [
        {
          "internalType": "address",
          "name": "from",
          "type": "address"
        },
        {
          "internalType": "address",
          "name": "to",
          "type": "address"
        },
        {
          "internalType": "uint256",
          "name": "tokenId",
          "type": "uint256"
        },
        {
          "internalType": "bytes",
          "name": "_data",
          "type": "bytes"
        }
      ],
      "name": "safeTransferFrom",
      "outputs": [],
      "stateMutability": "nonpayable",
      "type": "function"
    },
    {
      "inputs": [
        {
          "internalType": "address",
          "name": "operator",
          "type": "address"
        },
        {
          "internalType": "bool",
          "name": "approved",
          "type": "bool"
        }
      ],
      "name": "setApprovalForAll",
      "outputs": [],
      "stateMutability": "nonpayable",
      "type": "function"
    },
    {
      "inputs": [
        {
          "internalType": "bytes4",
          "name": "interfaceId",
          "type": "bytes4"
        }
      ],
      "name": "supportsInterface",
      "outputs": [
        {
          "internalType": "bool",
          "name": "",
          "type": "bool"
        }
      ],
      "stateMutability": "view",
      "type": "function"
    },
    {
      "inputs": [],
      "name": "symbol",
      "outputs": [
        {
          "internalType": "string",
          "name": "",
          "type": "string"
        }
      ],
      "stateMutability": "view",
      "type": "function"
    },
    {
      "inputs": [
        {
          "internalType": "uint256",
          "name": "",
          "type": "uint256"
        }
      ],
      "name": "tokenToAuction",
      "outputs": [
        {
          "internalType": "uint256",
          "name": "maxBid",
          "type": "uint256"
        },
        {
          "internalType": "address",
          "name": "maxBidUser",
          "type": "address"
        },
        {
          "internalType": "bool",
          "name": "isActive",
          "type": "bool"
        }
      ],
      "stateMutability": "view",
      "type": "function"
    },
    {
      "inputs": [
        {
          "internalType": "uint256",
          "name": "tokenId",
          "type": "uint256"
        }
      ],
      "name": "tokenURI",
      "outputs": [
        {
          "internalType": "string",
          "name": "",
          "type": "string"
        }
      ],
      "stateMutability": "view",
      "type": "function"
    },
    {
      "inputs": [
        {
          "internalType": "address",
          "name": "from",
          "type": "address"
        },
        {
          "internalType": "address",
          "name": "to",
          "type": "address"
        },
        {
          "internalType": "uint256",
          "name": "tokenId",
          "type": "uint256"
        }
      ],
      "name": "transferFrom",
      "outputs": [],
      "stateMutability": "nonpayable",
      "type": "function"
    },
    {
      "stateMutability": "payable",
      "type": "receive"
    }
  ],
  "bytecode": "0x60806040526601c6bf526340006009553480156200001c57600080fd5b506040805180820182526006815265544f5251554560d01b602080830191825283518085019094526004845263544f525160e01b908401528151919291620000679160009162000098565b5080516200007d90600190602084019062000098565b5050600c80546001600160a01b03191633179055506200017b565b828054620000a6906200013e565b90600052602060002090601f016020900481019282620000ca576000855562000115565b82601f10620000e557805160ff191683800117855562000115565b8280016001018555821562000115579182015b8281111562000115578251825591602001919060010190620000f8565b506200012392915062000127565b5090565b5b8082111562000123576000815560010162000128565b600181811c908216806200015357607f821691505b602082108114156200017557634e487b7160e01b600052602260045260246000fd5b50919050565b61393b806200018b6000396000f3fe6080604052600436106101e75760003560e01c80636352211e11610102578063b88d4fde11610095578063d73a073111610064578063d73a0731146105da578063e219fc7514610607578063e985e9c51461061a578063fb05da2e1461066357600080fd5b8063b88d4fde14610519578063bb19dd0814610539578063be9af536146105a7578063c87b56dd146105ba57600080fd5b806395d89b41116100d157806395d89b41146104b157806396b5a755146104c65780639b1225c4146104e6578063a22cb465146104f957600080fd5b80636352211e1461043e57806370a082311461045e57806372b3b6201461047e57806382c8089e1461049e57600080fd5b806323b872dd1161017a57806342842e0e1161014957806342842e0e146103d6578063454a2ab3146103f657806345f8fa80146104095780635bf8b6271461041e57600080fd5b806323b872dd14610358578063361c1995146103785780633eb591c91461038b5780633f1ffcec1461039e57600080fd5b80630f08efe0116101b65780630f08efe0146102a457806312e85585146102c6578063150b7a02146102e5578063202e37401461034357600080fd5b806301ffc9a7146101f357806306fdde0314610228578063081812fc1461024a578063095ea7b31461028257600080fd5b366101ee57005b600080fd5b3480156101ff57600080fd5b5061021361020e366004613372565b610690565b60405190151581526020015b60405180910390f35b34801561023457600080fd5b5061023d6106e2565b60405161021f91906135e7565b34801561025657600080fd5b5061026a610265366004613400565b610774565b6040516001600160a01b03909116815260200161021f565b34801561028e57600080fd5b506102a261029d366004613349565b610801565b005b3480156102b057600080fd5b506102b9610917565b60405161021f9190613598565b3480156102d257600080fd5b506009545b60405190815260200161021f565b3480156102f157600080fd5b5061032a610300366004613200565b7f150b7a023d4804d13e8c85fb27262cb750cf6ba9f9dd3bb30d90f482ceeb4b1f95945050505050565b6040516001600160e01b0319909116815260200161021f565b34801561034f57600080fd5b506102b9610ad2565b34801561036457600080fd5b506102a26103733660046131c5565b610ccb565b6102a261038636600461343a565b610cfc565b6102a2610399366004613400565b610e80565b3480156103aa57600080fd5b506102d76103b9366004613418565b600f60209081526000928352604080842090915290825290205481565b3480156103e257600080fd5b506102a26103f13660046131c5565b610f46565b6102a2610404366004613400565b610f61565b34801561041557600080fd5b506102b96113d7565b34801561042a57600080fd5b506102a2610439366004613400565b6115d0565b34801561044a57600080fd5b5061026a610459366004613400565b611801565b34801561046a57600080fd5b506102d7610479366004613179565b611878565b34801561048a57600080fd5b506102d76104993660046133aa565b6118ff565b6102a26104ac36600461343a565b611941565b3480156104bd57600080fd5b5061023d611ac0565b3480156104d257600080fd5b506102a26104e1366004613400565b611acf565b6102a26104f4366004613400565b611dcf565b34801561050557600080fd5b506102a261051436600461330f565b612058565b34801561052557600080fd5b506102a2610534366004613296565b612063565b34801561054557600080fd5b50610582610554366004613400565b600e60205260009081526040902080546001909101546001600160a01b03811690600160a01b900460ff1683565b604080519384526001600160a01b03909216602084015215159082015260600161021f565b6102a26105b5366004613400565b61209b565b3480156105c657600080fd5b5061023d6105d5366004613400565b612247565b3480156105e657600080fd5b506105fa6105f5366004613400565b6123be565b60405161021f919061373a565b6102a261061536600461343a565b6124ec565b34801561062657600080fd5b50610213610635366004613193565b6001600160a01b03918216600090815260056020908152604080832093909416825291909152205460ff1690565b34801561066f57600080fd5b5061068361067e366004613400565b6125a9565b60405161021f919061372b565b60006001600160e01b031982166380ac58cd60e01b14806106c157506001600160e01b03198216635b5e139f60e01b145b806106dc57506301ffc9a760e01b6001600160e01b03198316145b92915050565b6060600080546106f190613843565b80601f016020809104026020016040519081016040528092919081815260200182805461071d90613843565b801561076a5780601f1061073f5761010080835404028352916020019161076a565b820191906000526020600020905b81548152906001019060200180831161074d57829003601f168201915b5050505050905090565b600061077f82612638565b6107e55760405162461bcd60e51b815260206004820152602c60248201527f4552433732313a20617070726f76656420717565727920666f72206e6f6e657860448201526b34b9ba32b73a103a37b5b2b760a11b60648201526084015b60405180910390fd5b506000908152600460205260409020546001600160a01b031690565b600061080c82611801565b9050806001600160a01b0316836001600160a01b0316141561087a5760405162461bcd60e51b815260206004820152602160248201527f4552433732313a20617070726f76616c20746f2063757272656e74206f776e656044820152603960f91b60648201526084016107dc565b336001600160a01b038216148061089657506108968133610635565b6109085760405162461bcd60e51b815260206004820152603860248201527f4552433732313a20617070726f76652063616c6c6572206973206e6f74206f7760448201527f6e6572206e6f7220617070726f76656420666f7220616c6c000000000000000060648201526084016107dc565b6109128383612655565b505050565b6060600061092460075490565b9050600061093160085490565b60075461093e9190613800565b90506000808267ffffffffffffffff81111561096a57634e487b7160e01b600052604160045260246000fd5b6040519080825280602002602001820160405280156109a357816020015b610990612f5d565b8152602001906001900390816109885790505b50905060005b84811015610ac95730600d60006109c18460016137d4565b81526020810191909152604001600020600201546001600160a01b03161415610ab75760006109f18260016137d4565b6000818152600d6020908152604091829020825161010080820185528254825260018301546001600160a01b039081169483019490945260028301548416948201949094526003820154909216606083015260048101546080830152600581015460a0830152600681015460ff808216151560c0850152939004909216151560e082015285519293509091859087908110610a9c57634e487b7160e01b600052603260045260246000fd5b6020908102919091010152610ab26001866137d4565b945050505b80610ac18161387e565b9150506109a9565b50949350505050565b60606000610adf60075490565b905060008060005b83811015610b425733600d6000610aff8460016137d4565b81526020810191909152604001600020600201546001600160a01b03161415610b3057610b2d6001846137d4565b92505b80610b3a8161387e565b915050610ae7565b5060008267ffffffffffffffff811115610b6c57634e487b7160e01b600052604160045260246000fd5b604051908082528060200260200182016040528015610ba557816020015b610b92612f5d565b815260200190600190039081610b8a5790505b50905060005b84811015610ac95733600d6000610bc38460016137d4565b81526020810191909152604001600020600201546001600160a01b03161415610cb9576000610bf38260016137d4565b6000818152600d6020908152604091829020825161010080820185528254825260018301546001600160a01b039081169483019490945260028301548416948201949094526003820154909216606083015260048101546080830152600581015460a0830152600681015460ff808216151560c0850152939004909216151560e082015285519293509091859087908110610c9e57634e487b7160e01b600052603260045260246000fd5b6020908102919091010152610cb46001866137d4565b945050505b80610cc38161387e565b915050610bab565b610cd533826126c3565b610cf15760405162461bcd60e51b81526004016107dc906136da565b6109128383836127ac565b60008111610d4c5760405162461bcd60e51b815260206004820152601c60248201527f5072696365206d757374206265206174206c656173742031207765690000000060448201526064016107dc565b6040805161010080820183528482523360208084018281528486018381526060860193845260808601888152600a5460a08801908152600060c0890181815260e08a018281528d8352600d909752999020975188559251600180890180546001600160a01b03199081166001600160a01b0394851617909155935160028a01805486169184169190911790559551600389018054909416911617909155516004860155516005850155935160069093018054945161ffff1990951693151561ff00191693909317931515909102929092179055600880549091019055610e333333846127ac565b604080513380825260208201529081018290526000606082015282907fb640004f1d14576d0c209e240cad0410e0d8c0c33a09375861fbadae2588a98d9060800160405180910390a25050565b6000818152600d6020526040902060038101546001909101546001600160a01b03908116911614610ef9576000818152600d60205260408082206003015460095491516001600160a01b039091169282156108fc02929190818181858888f19350505050158015610ef5573d6000803e3d6000fd5b5050565b6000818152600d60205260408082206001015460095491516001600160a01b039091169282156108fc02929190818181858888f19350505050158015610ef5573d6000803e3d6000fd5b50565b61091283838360405180602001604052806000815250612063565b6000818152600e602052604090206001810154600160a01b900460ff16610f9357610f8f42620151806137d4565b600b555b6000828152600d60205260409020600501543410156110005760405162461bcd60e51b8152602060048201526024808201527f626964207072696365206973206c657373207468616e2063757272656e7420706044820152637269636560e01b60648201526084016107dc565b42600b5410156110525760405162461bcd60e51b815260206004820152601760248201527f646561646c696e6520616c72656164792070617373656400000000000000000060448201526064016107dc565b60018101805460ff60a01b1916600160a01b17905560005b60038201548110156111fb5760018201546003830180546001600160a01b0390921691839081106110ab57634e487b7160e01b600052603260045260246000fd5b6000918252602090912001546001600160a01b03161480156110fb57508154600283018054839081106110ee57634e487b7160e01b600052603260045260246000fd5b9060005260206000200154145b156111e957600082600301828154811061112557634e487b7160e01b600052603260045260246000fd5b6000918252602080832090910154868352600f909152604082206003860180546001600160a01b039093169391928690811061117157634e487b7160e01b600052603260045260246000fd5b6000918252602080832091909101546001600160a01b0316835282019290925260409081018220549051909181818185875af1925050503d80600081146111d4576040519150601f19603f3d011682016040523d82523d6000602084013e6111d9565b606091505b50509050806111e757600080fd5b505b806111f38161387e565b91505061106a565b5060008082556001820180546001600160a01b0319169055828152600f602090815260408083203384529091529020541561129a576000828152600f602090815260408083203380855292528083205490518381818185875af1925050503d8060008114611285576040519150601f19603f3d011682016040523d82523d6000602084013e61128a565b606091505b505090508061129857600080fd5b505b6000828152600f60209081526040808320338452909152902034905560028101546112db573481556001810180546001600160a01b03191633179055611396565b60028101546000906112ef90600190613800565b90503482600201828154811061131557634e487b7160e01b600052603260045260246000fd5b90600052602060002001541061137d5760405162461bcd60e51b815260206004820152602760248201527f43757272656e74206d61782062696420697320686967686572207468616e20796044820152661bdd5c88189a5960ca1b60648201526084016107dc565b503481556001810180546001600160a01b031916331790555b600381018054600181810183556000928352602080842090920180546001600160a01b03191633179055600290930180549384018155825290203491015550565b606060006113e460075490565b905060008060005b838110156114475733600d60006114048460016137d4565b81526020810191909152604001600020600101546001600160a01b03161415611435576114326001846137d4565b92505b8061143f8161387e565b9150506113ec565b5060008267ffffffffffffffff81111561147157634e487b7160e01b600052604160045260246000fd5b6040519080825280602002602001820160405280156114aa57816020015b611497612f5d565b81526020019060019003908161148f5790505b50905060005b84811015610ac95733600d60006114c88460016137d4565b81526020810191909152604001600020600101546001600160a01b031614156115be5760006114f88260016137d4565b6000818152600d6020908152604091829020825161010080820185528254825260018301546001600160a01b039081169483019490945260028301548416948201949094526003820154909216606083015260048101546080830152600581015460a0830152600681015460ff808216151560c0850152939004909216151560e0820152855192935090918590879081106115a357634e487b7160e01b600052603260045260246000fd5b60209081029190910101526115b96001866137d4565b945050505b806115c88161387e565b9150506114b0565b6115dd42620151806137d4565b600b5410156116545760405162461bcd60e51b815260206004820152603c60248201527f796f752063616e277420576974686472617720796f757220626964206265666f60448201527f7265203234206872732066726f6d2061756374696f6e20656e6465640000000060648201526084016107dc565b6000818152600e6020526040902060018101546001600160a01b0316331461168e5760405162461bcd60e51b81526004016107dc9061364c565b60005b60038201548110156117e85760018201546003830180546001600160a01b0390921691839081106116d257634e487b7160e01b600052603260045260246000fd5b6000918252602090912001546001600160a01b031614156117d657600082600301828154811061171257634e487b7160e01b600052603260045260246000fd5b6000918252602080832090910154868352600f909152604082206003860180546001600160a01b039093169391928690811061175e57634e487b7160e01b600052603260045260246000fd5b6000918252602080832091909101546001600160a01b0316835282019290925260409081018220549051909181818185875af1925050503d80600081146117c1576040519150601f19603f3d011682016040523d82523d6000602084013e6117c6565b606091505b50509050806117d457600080fd5b505b806117e08161387e565b915050611691565b506000815560010180546001600160a01b031916905550565b6000818152600260205260408120546001600160a01b0316806106dc5760405162461bcd60e51b815260206004820152602960248201527f4552433732313a206f776e657220717565727920666f72206e6f6e657869737460448201526832b73a103a37b5b2b760b91b60648201526084016107dc565b60006001600160a01b0382166118e35760405162461bcd60e51b815260206004820152602a60248201527f4552433732313a2062616c616e636520717565727920666f7220746865207a65604482015269726f206164647265737360b01b60648201526084016107dc565b506001600160a01b031660009081526003602052604090205490565b600061190f600780546001019055565b600061191a60075490565b90506119263382612948565b6119308185612a7b565b61193a8184610cfc565b9392505050565b6000828152600d60205260409020600201546001600160a01b0316331461197a5760405162461bcd60e51b81526004016107dc9061364c565b600954341461199b5760405162461bcd60e51b81526004016107dc90613696565b6000828152600d6020526040902060068101805461ffff191690556001810180546001600160a01b03199081163317909155600282018054909116301790556005018190556119ea6008612b06565b6040805160a08101825260008082526020808301829052828401829052835182815280820185526060840152835191825281019092526080810191909152611a333330856127ac565b6000838152600e60209081526040918290208351815581840151600182018054948601511515600160a01b026001600160a81b03199095166001600160a01b03909216919091179390931790925560608301518051849392611a9c926002850192910190612fa1565b5060808201518051611ab8916003840191602090910190612fec565b505050505050565b6060600180546106f190613843565b6000818152600e60209081526040808320600d909252909120600101546001600160a01b03163314611b305760405162461bcd60e51b815260206004820152600a6024820152692737ba1039b2b63632b960b11b60448201526064016107dc565b6001810154600160a01b900460ff16611b805760405162461bcd60e51b815260206004820152601260248201527161756374696f6e206e6f742061637469766560701b60448201526064016107dc565b60018101805460ff60a01b1916905560005b6003820154811015611ce95760018201546003830180546001600160a01b039092169183908110611bd357634e487b7160e01b600052603260045260246000fd5b6000918252602090912001546001600160a01b03161415611cd7576000826003018281548110611c1357634e487b7160e01b600052603260045260246000fd5b6000918252602080832090910154868352600f909152604082206003860180546001600160a01b0390931693919286908110611c5f57634e487b7160e01b600052603260045260246000fd5b6000918252602080832091909101546001600160a01b0316835282019290925260409081018220549051909181818185875af1925050503d8060008114611cc2576040519150601f19603f3d011682016040523d82523d6000602084013e611cc7565b606091505b5050905080611cd557600080fd5b505b80611ce18161387e565b915050611b92565b506000828152600d602052604090206001810154600290910180546001600160a01b0319166001600160a01b03909216919091179055611d2d600880546001019055565b6000828152600d602052604090819020600101549051632142170760e11b815230600482018190526001600160a01b039092166024820152604481018490526342842e0e90606401600060405180830381600087803b158015611d8f57600080fd5b505af1158015611da3573d6000803e3d6000fd5b50505050806003016000611db79190613041565b6000815560010180546001600160a01b031916905550565b6000818152600e60209081526040808320600d909252909120600101548291906001600160a01b03163314611e335760405162461bcd60e51b815260206004820152600a6024820152692737ba1039b2b63632b960b11b60448201526064016107dc565b6001810154600160a01b900460ff16611e835760405162461bcd60e51b815260206004820152601260248201527161756374696f6e206e6f742061637469766560701b60448201526064016107dc565b60018101805460ff60a01b191690556002810154611f3c576000838152600d6020526040808220600101805485845282842060020180546001600160a01b0319166001600160a01b0392831617905592869052549051632142170760e11b8152306004820181905291909216602483015260448201859052906342842e0e90606401600060405180830381600087803b158015611f1f57600080fd5b505af1158015611f33573d6000803e3d6000fd5b50505050612041565b6000838152600d602052604080822060010154835491516001600160a01b0390911691908381818185875af1925050503d8060008114611f98576040519150601f19603f3d011682016040523d82523d6000602084013e611f9d565b606091505b5050905080611fab57600080fd5b6001820180546000858152600d60205260409081902060020180546001600160a01b0319166001600160a01b0393841617905591549151632142170760e11b81523060048201819052929091166024820152604481018690526342842e0e90606401600060405180830381600087803b15801561202757600080fd5b505af115801561203b573d6000803e3d6000fd5b50505050505b61204f600880546001019055565b61091282610e80565b610ef5338383612b5d565b61206d33836126c3565b6120895760405162461bcd60e51b81526004016107dc906136da565b61209584848484612c2c565b50505050565b6000818152600d6020526040902060048101546001909101546001600160a01b0316348214612134576040805162461bcd60e51b81526020600482015260248101919091527f506c65617365207375626d6974207468652061736b696e67207072696365206960448201527f6e206f7264657220746f20636f6d706c6574652074686520707572636861736560648201526084016107dc565b6000838152600d602052604090206006015460ff6101009091041615156001146121ab5760405162461bcd60e51b815260206004820152602260248201527f6d61726b657473656c6c20697320696e41637469766520646f20706c616365426044820152611a5960f21b60648201526084016107dc565b6000838152600d602052604090206002810180546001600160a01b031990811633179091556006820180546001938401805490931690925561ffff1990911690911790556121fd600880546001019055565b6122083033856127ac565b6040516001600160a01b038216903480156108fc02916000818181858888f1935050505015801561223d573d6000803e3d6000fd5b5061091283610e80565b606061225282612638565b6122b85760405162461bcd60e51b815260206004820152603160248201527f45524337323155524953746f726167653a2055524920717565727920666f72206044820152703737b732bc34b9ba32b73a103a37b5b2b760791b60648201526084016107dc565b600082815260066020526040812080546122d190613843565b80601f01602080910402602001604051908101604052809291908181526020018280546122fd90613843565b801561234a5780601f1061231f5761010080835404028352916020019161234a565b820191906000526020600020905b81548152906001019060200180831161232d57829003601f168201915b50505050509050600061236860408051602081019091526000815290565b905080516000141561237b575092915050565b8151156123ad57808260405160200161239592919061352c565b60405160208183030381529060405292505050919050565b6123b684612c5f565b949350505050565b6040805160a08101825260008082526020820181905291810191909152606080820181905260808201526000828152600e60209081526040808320815160a0810183528154815260018201546001600160a01b03811682860152600160a01b900460ff1615158184015260028201805484518187028101870190955280855291949293606086019390929083018282801561247857602002820191906000526020600020905b815481526020019060010190808311612464575b50505050508152602001600382018054806020026020016040519081016040528092919081815260200182805480156124da57602002820191906000526020600020905b81546001600160a01b031681526001909101906020018083116124bc575b50505091909252509195945050505050565b6000828152600d60205260409020600201546001600160a01b031633146125255760405162461bcd60e51b81526004016107dc9061364c565b60095434146125465760405162461bcd60e51b81526004016107dc90613696565b6000828152600d60205260409020600681018054600483018490556001830180546001600160a01b0319908116331790915560029093018054909316301790925561ffff1990911661010017905561259e6008612b06565b610ef53330846127ac565b6125b1612f5d565b506000908152600d6020908152604091829020825161010080820185528254825260018301546001600160a01b039081169483019490945260028301548416948201949094526003820154909216606083015260048101546080830152600581015460a08301526006015460ff808216151560c0840152929004909116151560e082015290565b6000908152600260205260409020546001600160a01b0316151590565b600081815260046020526040902080546001600160a01b0319166001600160a01b038416908117909155819061268a82611801565b6001600160a01b03167f8c5be1e5ebec7d5bd14f71427d1e84f3dd0314c0f7b2291e5b200ac8c7c3b92560405160405180910390a45050565b60006126ce82612638565b61272f5760405162461bcd60e51b815260206004820152602c60248201527f4552433732313a206f70657261746f7220717565727920666f72206e6f6e657860448201526b34b9ba32b73a103a37b5b2b760a11b60648201526084016107dc565b600061273a83611801565b9050806001600160a01b0316846001600160a01b0316148061278157506001600160a01b0380821660009081526005602090815260408083209388168352929052205460ff165b806123b65750836001600160a01b031661279a84610774565b6001600160a01b031614949350505050565b826001600160a01b03166127bf82611801565b6001600160a01b0316146128235760405162461bcd60e51b815260206004820152602560248201527f4552433732313a207472616e736665722066726f6d20696e636f72726563742060448201526437bbb732b960d91b60648201526084016107dc565b6001600160a01b0382166128855760405162461bcd60e51b8152602060048201526024808201527f4552433732313a207472616e7366657220746f20746865207a65726f206164646044820152637265737360e01b60648201526084016107dc565b612890600082612655565b6001600160a01b03831660009081526003602052604081208054600192906128b9908490613800565b90915550506001600160a01b03821660009081526003602052604081208054600192906128e79084906137d4565b909155505060008181526002602052604080822080546001600160a01b0319166001600160a01b0386811691821790925591518493918716917fddf252ad1be2c89b69c2b068fc378daa952ba7f163c4a11628f55a4df523b3ef91a4505050565b6001600160a01b03821661299e5760405162461bcd60e51b815260206004820181905260248201527f4552433732313a206d696e7420746f20746865207a65726f206164647265737360448201526064016107dc565b6129a781612638565b156129f45760405162461bcd60e51b815260206004820152601c60248201527f4552433732313a20746f6b656e20616c7265616479206d696e7465640000000060448201526064016107dc565b6001600160a01b0382166000908152600360205260408120805460019290612a1d9084906137d4565b909155505060008181526002602052604080822080546001600160a01b0319166001600160a01b03861690811790915590518392907fddf252ad1be2c89b69c2b068fc378daa952ba7f163c4a11628f55a4df523b3ef908290a45050565b612a8482612638565b612ae75760405162461bcd60e51b815260206004820152602e60248201527f45524337323155524953746f726167653a2055524920736574206f66206e6f6e60448201526d32bc34b9ba32b73a103a37b5b2b760911b60648201526084016107dc565b600082815260066020908152604090912082516109129284019061305f565b805480612b555760405162461bcd60e51b815260206004820152601b60248201527f436f756e7465723a2064656372656d656e74206f766572666c6f77000000000060448201526064016107dc565b600019019055565b816001600160a01b0316836001600160a01b03161415612bbf5760405162461bcd60e51b815260206004820152601960248201527f4552433732313a20617070726f766520746f2063616c6c65720000000000000060448201526064016107dc565b6001600160a01b03838116600081815260056020908152604080832094871680845294825291829020805460ff191686151590811790915591519182527f17307eab39ab6107e8899845ad3d59bd9653f200f220920489ca2b5937696c31910160405180910390a3505050565b612c378484846127ac565b612c4384848484612d36565b6120955760405162461bcd60e51b81526004016107dc906135fa565b6060612c6a82612638565b612cce5760405162461bcd60e51b815260206004820152602f60248201527f4552433732314d657461646174613a2055524920717565727920666f72206e6f60448201526e3732bc34b9ba32b73a103a37b5b2b760891b60648201526084016107dc565b6000612ce560408051602081019091526000815290565b90506000815111612d05576040518060200160405280600081525061193a565b80612d0f84612e43565b604051602001612d2092919061352c565b6040516020818303038152906040529392505050565b60006001600160a01b0384163b15612e3857604051630a85bd0160e11b81526001600160a01b0385169063150b7a0290612d7a90339089908890889060040161355b565b602060405180830381600087803b158015612d9457600080fd5b505af1925050508015612dc4575060408051601f3d908101601f19168201909252612dc19181019061338e565b60015b612e1e573d808015612df2576040519150601f19603f3d011682016040523d82523d6000602084013e612df7565b606091505b508051612e165760405162461bcd60e51b81526004016107dc906135fa565b805181602001fd5b6001600160e01b031916630a85bd0160e11b1490506123b6565b506001949350505050565b606081612e675750506040805180820190915260018152600360fc1b602082015290565b8160005b8115612e915780612e7b8161387e565b9150612e8a9050600a836137ec565b9150612e6b565b60008167ffffffffffffffff811115612eba57634e487b7160e01b600052604160045260246000fd5b6040519080825280601f01601f191660200182016040528015612ee4576020820181803683370190505b5090505b84156123b657612ef9600183613800565b9150612f06600a86613899565b612f119060306137d4565b60f81b818381518110612f3457634e487b7160e01b600052603260045260246000fd5b60200101906001600160f81b031916908160001a905350612f56600a866137ec565b9450612ee8565b6040805161010081018252600080825260208201819052918101829052606081018290526080810182905260a0810182905260c0810182905260e081019190915290565b828054828255906000526020600020908101928215612fdc579160200282015b82811115612fdc578251825591602001919060010190612fc1565b50612fe89291506130d2565b5090565b828054828255906000526020600020908101928215612fdc579160200282015b82811115612fdc57825182546001600160a01b0319166001600160a01b0390911617825560209092019160019091019061300c565b5080546000825590600052602060002090810190610f4391906130d2565b82805461306b90613843565b90600052602060002090601f01602090048101928261308d5760008555612fdc565b82601f106130a657805160ff1916838001178555612fdc565b82800160010185558215612fdc5791820182811115612fdc578251825591602001919060010190612fc1565b5b80821115612fe857600081556001016130d3565b600067ffffffffffffffff80841115613102576131026138d9565b604051601f8501601f19908116603f0116810190828211818310171561312a5761312a6138d9565b8160405280935085815286868601111561314357600080fd5b858560208301376000602087830101525050509392505050565b80356001600160a01b038116811461317457600080fd5b919050565b60006020828403121561318a578081fd5b61193a8261315d565b600080604083850312156131a5578081fd5b6131ae8361315d565b91506131bc6020840161315d565b90509250929050565b6000806000606084860312156131d9578081fd5b6131e28461315d565b92506131f06020850161315d565b9150604084013590509250925092565b600080600080600060808688031215613217578081fd5b6132208661315d565b945061322e6020870161315d565b935060408601359250606086013567ffffffffffffffff80821115613251578283fd5b818801915088601f830112613264578283fd5b813581811115613272578384fd5b896020828501011115613283578384fd5b9699959850939650602001949392505050565b600080600080608085870312156132ab578384fd5b6132b48561315d565b93506132c26020860161315d565b925060408501359150606085013567ffffffffffffffff8111156132e4578182fd5b8501601f810187136132f4578182fd5b613303878235602084016130e7565b91505092959194509250565b60008060408385031215613321578182fd5b61332a8361315d565b91506020830135801515811461333e578182fd5b809150509250929050565b6000806040838503121561335b578182fd5b6133648361315d565b946020939093013593505050565b600060208284031215613383578081fd5b813561193a816138ef565b60006020828403121561339f578081fd5b815161193a816138ef565b600080604083850312156133bc578182fd5b823567ffffffffffffffff8111156133d2578283fd5b8301601f810185136133e2578283fd5b6133f1858235602084016130e7565b95602094909401359450505050565b600060208284031215613411578081fd5b5035919050565b6000806040838503121561342a578182fd5b823591506131bc6020840161315d565b6000806040838503121561344c578182fd5b50508035926020909101359150565b6000815180845260208085019450808401835b838110156134935781516001600160a01b03168752958201959082019060010161346e565b509495945050505050565b600081518084526134b6816020860160208601613817565b601f01601f19169290920160200192915050565b80518252602081015160018060a01b03808216602085015280604084015116604085015280606084015116606085015250506080810151608083015260a081015160a083015260c0810151151560c083015260e0810151151560e08301525050565b6000835161353e818460208801613817565b835190830190613552818360208801613817565b01949350505050565b6001600160a01b038581168252841660208201526040810183905260806060820181905260009061358e9083018461349e565b9695505050505050565b6020808252825182820181905260009190848201906040850190845b818110156135db576135c78385516134ca565b9284019261010092909201916001016135b4565b50909695505050505050565b60208152600061193a602083018461349e565b60208082526032908201527f4552433732313a207472616e7366657220746f206e6f6e20455243373231526560408201527131b2b4bb32b91034b6b83632b6b2b73a32b960711b606082015260800190565b6020808252602a908201527f4f6e6c79206974656d206f776e65722063616e20706572666f726d20746869736040820152691037b832b930ba34b7b760b11b606082015260800190565b60208082526024908201527f5072696365206d75737420626520657175616c20746f206c697374696e6720706040820152637269636560e01b606082015260800190565b60208082526031908201527f4552433732313a207472616e736665722063616c6c6572206973206e6f74206f6040820152701ddb995c881b9bdc88185c1c1c9bdd9959607a1b606082015260800190565b61010081016106dc82846134ca565b6020808252825182820152828101516001600160a01b0316604080840191909152830151151560608084019190915283015160a06080840152805160c0840181905260009291820190839060e08601905b808310156137ab578351825292840192600192909201919084019061378b565b506080870151868203601f190160a088015293506137c9818561345b565b979650505050505050565b600082198211156137e7576137e76138ad565b500190565b6000826137fb576137fb6138c3565b500490565b600082821015613812576138126138ad565b500390565b60005b8381101561383257818101518382015260200161381a565b838111156120955750506000910152565b600181811c9082168061385757607f821691505b6020821081141561387857634e487b7160e01b600052602260045260246000fd5b50919050565b6000600019821415613892576138926138ad565b5060010190565b6000826138a8576138a86138c3565b500690565b634e487b7160e01b600052601160045260246000fd5b634e487b7160e01b600052601260045260246000fd5b634e487b7160e01b600052604160045260246000fd5b6001600160e01b031981168114610f4357600080fdfea2646970667358221220fc78a1339dd22226ee7aea9489e8789a0c0bb1b32aaca6f857d18bd2bc379ef864736f6c63430008040033",
  "linkReferences": {},
  "deployedLinkReferences": {}
}