{
  "_format": "hh-sol-artifact-1",
  "contractName": "NFTMarketplace",
  "sourceName": "contracts/NFTMarketplace.sol",
  "abi": [
    {
      "inputs": [],
      "stateMutability": "nonpayable",
      "type": "constructor"
    },
    {
      "anonymous": false,
      "inputs": [
        {
          "indexed": true,
          "internalType": "address",
          "name": "owner",
          "type": "address"
        },
        {
          "indexed": true,
          "internalType": "address",
          "name": "approved",
          "type": "address"
        },
        {
          "indexed": true,
          "internalType": "uint256",
          "name": "tokenId",
          "type": "uint256"
        }
      ],
      "name": "Approval",
      "type": "event"
    },
    {
      "anonymous": false,
      "inputs": [
        {
          "indexed": true,
          "internalType": "address",
          "name": "owner",
          "type": "address"
        },
        {
          "indexed": true,
          "internalType": "address",
          "name": "operator",
          "type": "address"
        },
        {
          "indexed": false,
          "internalType": "bool",
          "name": "approved",
          "type": "bool"
        }
      ],
      "name": "ApprovalForAll",
      "type": "event"
    },
    {
      "anonymous": false,
      "inputs": [
        {
          "indexed": true,
          "internalType": "uint256",
          "name": "tokenId",
          "type": "uint256"
        },
        {
          "indexed": false,
          "internalType": "address",
          "name": "seller",
          "type": "address"
        },
        {
          "indexed": false,
          "internalType": "address",
          "name": "owner",
          "type": "address"
        },
        {
          "indexed": false,
          "internalType": "uint256",
          "name": "price",
          "type": "uint256"
        },
        {
          "indexed": false,
          "internalType": "bool",
          "name": "sold",
          "type": "bool"
        }
      ],
      "name": "MarketItemCreated",
      "type": "event"
    },
    {
      "anonymous": false,
      "inputs": [
        {
          "indexed": true,
          "internalType": "address",
          "name": "from",
          "type": "address"
        },
        {
          "indexed": true,
          "internalType": "address",
          "name": "to",
          "type": "address"
        },
        {
          "indexed": true,
          "internalType": "uint256",
          "name": "tokenId",
          "type": "uint256"
        }
      ],
      "name": "Transfer",
      "type": "event"
    },
    {
      "inputs": [
        {
          "internalType": "uint256",
          "name": "tokenId",
          "type": "uint256"
        }
      ],
      "name": "Royality",
      "outputs": [],
      "stateMutability": "payable",
      "type": "function"
    },
    {
      "inputs": [
        {
          "internalType": "address",
          "name": "to",
          "type": "address"
        },
        {
          "internalType": "uint256",
          "name": "tokenId",
          "type": "uint256"
        }
      ],
      "name": "approve",
      "outputs": [],
      "stateMutability": "nonpayable",
      "type": "function"
    },
    {
      "inputs": [
        {
          "internalType": "uint256",
          "name": "tokenId",
          "type": "uint256"
        },
        {
          "internalType": "address",
          "name": "_another",
          "type": "address"
        }
      ],
      "name": "approveForAuction",
      "outputs": [],
      "stateMutability": "nonpayable",
      "type": "function"
    },
    {
      "inputs": [
        {
          "internalType": "address",
          "name": "owner",
          "type": "address"
        }
      ],
      "name": "balanceOf",
      "outputs": [
        {
          "internalType": "uint256",
          "name": "",
          "type": "uint256"
        }
      ],
      "stateMutability": "view",
      "type": "function"
    },
    {
      "inputs": [
        {
          "internalType": "uint256",
          "name": "_tokenId",
          "type": "uint256"
        }
      ],
      "name": "bid",
      "outputs": [],
      "stateMutability": "payable",
      "type": "function"
    },
    {
      "inputs": [
        {
          "internalType": "uint256",
          "name": "",
          "type": "uint256"
        },
        {
          "internalType": "address",
          "name": "",
          "type": "address"
        }
      ],
      "name": "bids",
      "outputs": [
        {
          "internalType": "uint256",
          "name": "",
          "type": "uint256"
        }
      ],
      "stateMutability": "view",
      "type": "function"
    },
    {
      "inputs": [
        {
          "internalType": "uint256",
          "name": "tokenId",
          "type": "uint256"
        }
      ],
      "name": "cancelAuction",
      "outputs": [],
      "stateMutability": "nonpayable",
      "type": "function"
    },
    {
      "inputs": [
        {
          "internalType": "uint256",
          "name": "tokenId",
          "type": "uint256"
        },
        {
          "internalType": "uint256",
          "name": "auctionPrice",
          "type": "uint256"
        }
      ],
      "name": "createAuctionToken",
      "outputs": [],
      "stateMutability": "payable",
      "type": "function"
    },
    {
      "inputs": [
        {
          "internalType": "uint256",
          "name": "tokenId",
          "type": "uint256"
        },
        {
          "internalType": "uint256",
          "name": "price",
          "type": "uint256"
        }
      ],
      "name": "createMarketItem",
      "outputs": [],
      "stateMutability": "payable",
      "type": "function"
    },
    {
      "inputs": [
        {
          "internalType": "uint256",
          "name": "tokenId",
          "type": "uint256"
        }
      ],
      "name": "createMarketSale",
      "outputs": [],
      "stateMutability": "payable",
      "type": "function"
    },
    {
      "inputs": [
        {
          "internalType": "string",
          "name": "tokenURI",
          "type": "string"
        },
        {
          "internalType": "uint256",
          "name": "price",
          "type": "uint256"
        }
      ],
      "name": "createToken",
      "outputs": [
        {
          "internalType": "uint256",
          "name": "",
          "type": "uint256"
        }
      ],
      "stateMutability": "payable",
      "type": "function"
    },
    {
      "inputs": [
        {
          "internalType": "uint256",
          "name": "_tokenId",
          "type": "uint256"
        }
      ],
      "name": "executeSale",
      "outputs": [],
      "stateMutability": "payable",
      "type": "function"
    },
    {
      "inputs": [],
      "name": "fetchItemsListed",
      "outputs": [
        {
          "components": [
            {
              "internalType": "uint256",
              "name": "tokenId",
              "type": "uint256"
            },
            {
              "internalType": "address payable",
              "name": "seller",
              "type": "address"
            },
            {
              "internalType": "address payable",
              "name": "owner",
              "type": "address"
            },
            {
              "internalType": "address payable",
              "name": "minter",
              "type": "address"
            },
            {
              "internalType": "uint256",
              "name": "price",
              "type": "uint256"
            },
            {
              "internalType": "uint256",
              "name": "auctionprice",
              "type": "uint256"
            },
            {
              "internalType": "bool",
              "name": "sold",
              "type": "bool"
            },
            {
              "internalType": "bool",
              "name": "isActive",
              "type": "bool"
            }
          ],
          "internalType": "struct NFTMarketplace.MarketItem[]",
          "name": "",
          "type": "tuple[]"
        }
      ],
      "stateMutability": "view",
      "type": "function"
    },
    {
      "inputs": [],
      "name": "fetchMarketItems",
      "outputs": [
        {
          "components": [
            {
              "internalType": "uint256",
              "name": "tokenId",
              "type": "uint256"
            },
            {
              "internalType": "address payable",
              "name": "seller",
              "type": "address"
            },
            {
              "internalType": "address payable",
              "name": "owner",
              "type": "address"
            },
            {
              "internalType": "address payable",
              "name": "minter",
              "type": "address"
            },
            {
              "internalType": "uint256",
              "name": "price",
              "type": "uint256"
            },
            {
              "internalType": "uint256",
              "name": "auctionprice",
              "type": "uint256"
            },
            {
              "internalType": "bool",
              "name": "sold",
              "type": "bool"
            },
            {
              "internalType": "bool",
              "name": "isActive",
              "type": "bool"
            }
          ],
          "internalType": "struct NFTMarketplace.MarketItem[]",
          "name": "",
          "type": "tuple[]"
        }
      ],
      "stateMutability": "view",
      "type": "function"
    },
    {
      "inputs": [],
      "name": "fetchMyNFTs",
      "outputs": [
        {
          "components": [
            {
              "internalType": "uint256",
              "name": "tokenId",
              "type": "uint256"
            },
            {
              "internalType": "address payable",
              "name": "seller",
              "type": "address"
            },
            {
              "internalType": "address payable",
              "name": "owner",
              "type": "address"
            },
            {
              "internalType": "address payable",
              "name": "minter",
              "type": "address"
            },
            {
              "internalType": "uint256",
              "name": "price",
              "type": "uint256"
            },
            {
              "internalType": "uint256",
              "name": "auctionprice",
              "type": "uint256"
            },
            {
              "internalType": "bool",
              "name": "sold",
              "type": "bool"
            },
            {
              "internalType": "bool",
              "name": "isActive",
              "type": "bool"
            }
          ],
          "internalType": "struct NFTMarketplace.MarketItem[]",
          "name": "",
          "type": "tuple[]"
        }
      ],
      "stateMutability": "view",
      "type": "function"
    },
    {
      "inputs": [
        {
          "internalType": "uint256",
          "name": "tokenId",
          "type": "uint256"
        }
      ],
      "name": "getApproved",
      "outputs": [
        {
          "internalType": "address",
          "name": "",
          "type": "address"
        }
      ],
      "stateMutability": "view",
      "type": "function"
    },
    {
      "inputs": [
        {
          "internalType": "uint256",
          "name": "_tokenId",
          "type": "uint256"
        }
      ],
      "name": "getListingDetails",
      "outputs": [
        {
          "components": [
            {
              "internalType": "uint256",
              "name": "tokenId",
              "type": "uint256"
            },
            {
              "internalType": "address payable",
              "name": "seller",
              "type": "address"
            },
            {
              "internalType": "address payable",
              "name": "owner",
              "type": "address"
            },
            {
              "internalType": "address payable",
              "name": "minter",
              "type": "address"
            },
            {
              "internalType": "uint256",
              "name": "price",
              "type": "uint256"
            },
            {
              "internalType": "uint256",
              "name": "auctionprice",
              "type": "uint256"
            },
            {
              "internalType": "bool",
              "name": "sold",
              "type": "bool"
            },
            {
              "internalType": "bool",
              "name": "isActive",
              "type": "bool"
            }
          ],
          "internalType": "struct NFTMarketplace.MarketItem",
          "name": "",
          "type": "tuple"
        }
      ],
      "stateMutability": "view",
      "type": "function"
    },
    {
      "inputs": [],
      "name": "getListingPrice",
      "outputs": [
        {
          "internalType": "uint256",
          "name": "",
          "type": "uint256"
        }
      ],
      "stateMutability": "view",
      "type": "function"
    },
    {
      "inputs": [],
      "name": "getMintingPrice",
      "outputs": [
        {
          "internalType": "uint256",
          "name": "",
          "type": "uint256"
        }
      ],
      "stateMutability": "view",
      "type": "function"
    },
    {
      "inputs": [
        {
          "internalType": "uint256",
          "name": "_tokenId",
          "type": "uint256"
        }
      ],
      "name": "getTokenAuctionDetails",
      "outputs": [
        {
          "components": [
            {
              "internalType": "uint256",
              "name": "starttime",
              "type": "uint256"
            },
            {
              "internalType": "uint256",
              "name": "endTime",
              "type": "uint256"
            },
            {
              "internalType": "uint256",
              "name": "withdrawBidTime",
              "type": "uint256"
            },
            {
              "internalType": "uint256",
              "name": "maxBid",
              "type": "uint256"
            },
            {
              "internalType": "address",
              "name": "maxBidUser",
              "type": "address"
            },
            {
              "internalType": "bool",
              "name": "isActive",
              "type": "bool"
            },
            {
              "internalType": "uint256[]",
              "name": "bidAmounts",
              "type": "uint256[]"
            },
            {
              "internalType": "address[]",
              "name": "users",
              "type": "address[]"
            }
          ],
          "internalType": "struct NFTMarketplace.tokenDetails",
          "name": "",
          "type": "tuple"
        }
      ],
      "stateMutability": "view",
      "type": "function"
    },
    {
      "inputs": [
        {
          "internalType": "address",
          "name": "owner",
          "type": "address"
        },
        {
          "internalType": "address",
          "name": "operator",
          "type": "address"
        }
      ],
      "name": "isApprovedForAll",
      "outputs": [
        {
          "internalType": "bool",
          "name": "",
          "type": "bool"
        }
      ],
      "stateMutability": "view",
      "type": "function"
    },
    {
      "inputs": [
        {
          "internalType": "uint256",
          "name": "_tokenId",
          "type": "uint256"
        }
      ],
      "name": "maxBidWithdraw",
      "outputs": [],
      "stateMutability": "nonpayable",
      "type": "function"
    },
    {
      "inputs": [],
      "name": "name",
      "outputs": [
        {
          "internalType": "string",
          "name": "",
          "type": "string"
        }
      ],
      "stateMutability": "view",
      "type": "function"
    },
    {
      "inputs": [
        {
          "internalType": "address",
          "name": "",
          "type": "address"
        },
        {
          "internalType": "address",
          "name": "",
          "type": "address"
        },
        {
          "internalType": "uint256",
          "name": "",
          "type": "uint256"
        },
        {
          "internalType": "bytes",
          "name": "",
          "type": "bytes"
        }
      ],
      "name": "onERC721Received",
      "outputs": [
        {
          "internalType": "bytes4",
          "name": "",
          "type": "bytes4"
        }
      ],
      "stateMutability": "nonpayable",
      "type": "function"
    },
    {
      "inputs": [
        {
          "internalType": "uint256",
          "name": "tokenId",
          "type": "uint256"
        }
      ],
      "name": "ownerOf",
      "outputs": [
        {
          "internalType": "address",
          "name": "",
          "type": "address"
        }
      ],
      "stateMutability": "view",
      "type": "function"
    },
    {
      "inputs": [
        {
          "internalType": "uint256",
          "name": "tokenId",
          "type": "uint256"
        },
        {
          "internalType": "uint256",
          "name": "price",
          "type": "uint256"
        }
      ],
      "name": "resellToken",
      "outputs": [],
      "stateMutability": "payable",
      "type": "function"
    },
    {
      "inputs": [
        {
          "internalType": "address",
          "name": "from",
          "type": "address"
        },
        {
          "internalType": "address",
          "name": "to",
          "type": "address"
        },
        {
          "internalType": "uint256",
          "name": "tokenId",
          "type": "uint256"
        }
      ],
      "name": "safeTransferFrom",
      "outputs": [],
      "stateMutability": "nonpayable",
      "type": "function"
    },
    {
      "inputs": [
        {
          "internalType": "address",
          "name": "from",
          "type": "address"
        },
        {
          "internalType": "address",
          "name": "to",
          "type": "address"
        },
        {
          "internalType": "uint256",
          "name": "tokenId",
          "type": "uint256"
        },
        {
          "internalType": "bytes",
          "name": "_data",
          "type": "bytes"
        }
      ],
      "name": "safeTransferFrom",
      "outputs": [],
      "stateMutability": "nonpayable",
      "type": "function"
    },
    {
      "inputs": [
        {
          "internalType": "address",
          "name": "operator",
          "type": "address"
        },
        {
          "internalType": "bool",
          "name": "approved",
          "type": "bool"
        }
      ],
      "name": "setApprovalForAll",
      "outputs": [],
      "stateMutability": "nonpayable",
      "type": "function"
    },
    {
      "inputs": [
        {
          "internalType": "uint256",
          "name": "_listingPrice",
          "type": "uint256"
        }
      ],
      "name": "setListingPrice",
      "outputs": [],
      "stateMutability": "nonpayable",
      "type": "function"
    },
    {
      "inputs": [
        {
          "internalType": "uint256",
          "name": "_mintingPrice",
          "type": "uint256"
        }
      ],
      "name": "setMintingPrice",
      "outputs": [],
      "stateMutability": "nonpayable",
      "type": "function"
    },
    {
      "inputs": [
        {
          "internalType": "bytes4",
          "name": "interfaceId",
          "type": "bytes4"
        }
      ],
      "name": "supportsInterface",
      "outputs": [
        {
          "internalType": "bool",
          "name": "",
          "type": "bool"
        }
      ],
      "stateMutability": "view",
      "type": "function"
    },
    {
      "inputs": [],
      "name": "symbol",
      "outputs": [
        {
          "internalType": "string",
          "name": "",
          "type": "string"
        }
      ],
      "stateMutability": "view",
      "type": "function"
    },
    {
      "inputs": [
        {
          "internalType": "uint256",
          "name": "",
          "type": "uint256"
        }
      ],
      "name": "tokenToAuction",
      "outputs": [
        {
          "internalType": "uint256",
          "name": "starttime",
          "type": "uint256"
        },
        {
          "internalType": "uint256",
          "name": "endTime",
          "type": "uint256"
        },
        {
          "internalType": "uint256",
          "name": "withdrawBidTime",
          "type": "uint256"
        },
        {
          "internalType": "uint256",
          "name": "maxBid",
          "type": "uint256"
        },
        {
          "internalType": "address",
          "name": "maxBidUser",
          "type": "address"
        },
        {
          "internalType": "bool",
          "name": "isActive",
          "type": "bool"
        }
      ],
      "stateMutability": "view",
      "type": "function"
    },
    {
      "inputs": [
        {
          "internalType": "uint256",
          "name": "tokenId",
          "type": "uint256"
        }
      ],
      "name": "tokenURI",
      "outputs": [
        {
          "internalType": "string",
          "name": "",
          "type": "string"
        }
      ],
      "stateMutability": "view",
      "type": "function"
    },
    {
      "inputs": [
        {
          "internalType": "address",
          "name": "from",
          "type": "address"
        },
        {
          "internalType": "address",
          "name": "to",
          "type": "address"
        },
        {
          "internalType": "uint256",
          "name": "tokenId",
          "type": "uint256"
        }
      ],
      "name": "transferFrom",
      "outputs": [],
      "stateMutability": "nonpayable",
      "type": "function"
    },
    {
      "stateMutability": "payable",
      "type": "receive"
    }
  ],
  "bytecode": "0x60806040526658d15e1762800060095566038d7ea4c68000600a553480156200002757600080fd5b506040805180820182526006815265544f5251554560d01b602080830191825283518085019094526004845263544f525160e01b9084015281519192916200007291600091620000a3565b50805162000088906001906020840190620000a3565b5050600c80546001600160a01b031916331790555062000186565b828054620000b19062000149565b90600052602060002090601f016020900481019282620000d5576000855562000120565b82601f10620000f057805160ff191683800117855562000120565b8280016001018555821562000120579182015b828111156200012057825182559160200191906001019062000103565b506200012e92915062000132565b5090565b5b808211156200012e576000815560010162000133565b600181811c908216806200015e57607f821691505b602082108114156200018057634e487b7160e01b600052602260045260246000fd5b50919050565b613ba480620001966000396000f3fe6080604052600436106102135760003560e01c806372b3b62011610118578063b88d4fde116100a0578063d73a07311161006f578063d73a073114610677578063db0f17bc146106a4578063e219fc75146106c4578063e985e9c5146106d7578063fb05da2e1461072057600080fd5b8063b88d4fde1461058d578063bb19dd08146105ad578063be9af53614610644578063c87b56dd1461065757600080fd5b80638417b47f116100e75780638417b47f1461050557806395d89b411461052557806396b5a7551461053a5780639b1225c41461055a578063a22cb4651461056d57600080fd5b806372b3b620146104aa57806377d24762146104bd5780637c726b69146104d257806382c8089e146104f257600080fd5b8063361c19951161019b578063454a2ab31161016a578063454a2ab31461042257806345f8fa80146104355780635bf8b6271461044a5780636352211e1461046a57806370a082311461048a57600080fd5b8063361c1995146103a45780633eb591c9146103b75780633f1ffcec146103ca57806342842e0e1461040257600080fd5b80630f08efe0116101e25780630f08efe0146102d057806312e85585146102f2578063150b7a0214610311578063202e37401461036f57806323b872dd1461038457600080fd5b806301ffc9a71461021f57806306fdde0314610254578063081812fc14610276578063095ea7b3146102ae57600080fd5b3661021a57005b600080fd5b34801561022b57600080fd5b5061023f61023a3660046135bd565b61074d565b60405190151581526020015b60405180910390f35b34801561026057600080fd5b5061026961079f565b60405161024b9190613861565b34801561028257600080fd5b5061029661029136600461364b565b610831565b6040516001600160a01b03909116815260200161024b565b3480156102ba57600080fd5b506102ce6102c9366004613594565b6108be565b005b3480156102dc57600080fd5b506102e56109d4565b60405161024b9190613812565b3480156102fe57600080fd5b506009545b60405190815260200161024b565b34801561031d57600080fd5b5061035661032c36600461344b565b7f150b7a023d4804d13e8c85fb27262cb750cf6ba9f9dd3bb30d90f482ceeb4b1f95945050505050565b6040516001600160e01b0319909116815260200161024b565b34801561037b57600080fd5b506102e5610b8f565b34801561039057600080fd5b506102ce61039f366004613410565b610d88565b6102ce6103b2366004613685565b610db9565b6102ce6103c536600461364b565b610f5e565b3480156103d657600080fd5b506103036103e5366004613663565b600f60209081526000928352604080842090915290825290205481565b34801561040e57600080fd5b506102ce61041d366004613410565b611024565b6102ce61043036600461364b565b61103f565b34801561044157600080fd5b506102e56114db565b34801561045657600080fd5b506102ce61046536600461364b565b6116d4565b34801561047657600080fd5b5061029661048536600461364b565b61190a565b34801561049657600080fd5b506103036104a53660046133c4565b611981565b6103036104b83660046135f5565b611a08565b3480156104c957600080fd5b50600a54610303565b3480156104de57600080fd5b506102ce6104ed36600461364b565b611a4a565b6102ce610500366004613685565b611a66565b34801561051157600080fd5b506102ce61052036600461364b565b611c18565b34801561053157600080fd5b50610269611c34565b34801561054657600080fd5b506102ce61055536600461364b565b611c43565b6102ce61056836600461364b565b611f46565b34801561057957600080fd5b506102ce61058836600461355a565b6121e9565b34801561059957600080fd5b506102ce6105a83660046134e1565b6121f4565b3480156105b957600080fd5b5061060c6105c836600461364b565b600e6020526000908152604090208054600182015460028301546003840154600490940154929391929091906001600160a01b03811690600160a01b900460ff1686565b6040805196875260208701959095529385019290925260608401526001600160a01b03166080830152151560a082015260c00161024b565b6102ce61065236600461364b565b61222c565b34801561066357600080fd5b5061026961067236600461364b565b6123d8565b34801561068357600080fd5b5061069761069236600461364b565b61254f565b60405161024b91906139b4565b3480156106b057600080fd5b506102ce6106bf366004613663565b6126c5565b6102ce6106d2366004613685565b612737565b3480156106e357600080fd5b5061023f6106f23660046133de565b6001600160a01b03918216600090815260056020908152604080832093909416825291909152205460ff1690565b34801561072c57600080fd5b5061074061073b36600461364b565b6127f4565b60405161024b91906139a5565b60006001600160e01b031982166380ac58cd60e01b148061077e57506001600160e01b03198216635b5e139f60e01b145b8061079957506301ffc9a760e01b6001600160e01b03198316145b92915050565b6060600080546107ae90613aac565b80601f01602080910402602001604051908101604052809291908181526020018280546107da90613aac565b80156108275780601f106107fc57610100808354040283529160200191610827565b820191906000526020600020905b81548152906001019060200180831161080a57829003601f168201915b5050505050905090565b600061083c82612883565b6108a25760405162461bcd60e51b815260206004820152602c60248201527f4552433732313a20617070726f76656420717565727920666f72206e6f6e657860448201526b34b9ba32b73a103a37b5b2b760a11b60648201526084015b60405180910390fd5b506000908152600460205260409020546001600160a01b031690565b60006108c98261190a565b9050806001600160a01b0316836001600160a01b031614156109375760405162461bcd60e51b815260206004820152602160248201527f4552433732313a20617070726f76616c20746f2063757272656e74206f776e656044820152603960f91b6064820152608401610899565b336001600160a01b0382161480610953575061095381336106f2565b6109c55760405162461bcd60e51b815260206004820152603860248201527f4552433732313a20617070726f76652063616c6c6572206973206e6f74206f7760448201527f6e6572206e6f7220617070726f76656420666f7220616c6c00000000000000006064820152608401610899565b6109cf83836128a0565b505050565b606060006109e160075490565b905060006109ee60085490565b6007546109fb9190613a69565b90506000808267ffffffffffffffff811115610a2757634e487b7160e01b600052604160045260246000fd5b604051908082528060200260200182016040528015610a6057816020015b610a4d6131a8565b815260200190600190039081610a455790505b50905060005b84811015610b865730600d6000610a7e846001613a3d565b81526020810191909152604001600020600201546001600160a01b03161415610b74576000610aae826001613a3d565b6000818152600d6020908152604091829020825161010080820185528254825260018301546001600160a01b039081169483019490945260028301548416948201949094526003820154909216606083015260048101546080830152600581015460a0830152600681015460ff808216151560c0850152939004909216151560e082015285519293509091859087908110610b5957634e487b7160e01b600052603260045260246000fd5b6020908102919091010152610b6f600186613a3d565b945050505b80610b7e81613ae7565b915050610a66565b50949350505050565b60606000610b9c60075490565b905060008060005b83811015610bff5733600d6000610bbc846001613a3d565b81526020810191909152604001600020600201546001600160a01b03161415610bed57610bea600184613a3d565b92505b80610bf781613ae7565b915050610ba4565b5060008267ffffffffffffffff811115610c2957634e487b7160e01b600052604160045260246000fd5b604051908082528060200260200182016040528015610c6257816020015b610c4f6131a8565b815260200190600190039081610c475790505b50905060005b84811015610b865733600d6000610c80846001613a3d565b81526020810191909152604001600020600201546001600160a01b03161415610d76576000610cb0826001613a3d565b6000818152600d6020908152604091829020825161010080820185528254825260018301546001600160a01b039081169483019490945260028301548416948201949094526003820154909216606083015260048101546080830152600581015460a0830152600681015460ff808216151560c0850152939004909216151560e082015285519293509091859087908110610d5b57634e487b7160e01b600052603260045260246000fd5b6020908102919091010152610d71600186613a3d565b945050505b80610d8081613ae7565b915050610c68565b610d92338261290e565b610dae5760405162461bcd60e51b815260040161089990613954565b6109cf8383836129f7565b60008111610e095760405162461bcd60e51b815260206004820152601c60248201527f5072696365206d757374206265206174206c65617374203120776569000000006044820152606401610899565b600a543414610e2a5760405162461bcd60e51b815260040161089990613910565b6040805161010080820183528482523360208084018281528486018381526060860193845260808601888152600b5460a08801908152600060c0890181815260e08a018281528d8352600d909752999020975188559251600180890180546001600160a01b03199081166001600160a01b0394851617909155935160028a01805486169184169190911790559551600389018054909416911617909155516004860155516005850155935160069093018054945161ffff1990951693151561ff00191693909317931515909102929092179055600880549091019055610f113333846129f7565b604080513380825260208201529081018290526000606082015282907fb640004f1d14576d0c209e240cad0410e0d8c0c33a09375861fbadae2588a98d9060800160405180910390a25050565b6000818152600d6020526040902060038101546001909101546001600160a01b03908116911614610fd7576000818152600d602052604080822060030154600a5491516001600160a01b039091169282156108fc02929190818181858888f19350505050158015610fd3573d6000803e3d6000fd5b5050565b6000818152600d602052604080822060010154600a5491516001600160a01b039091169282156108fc02929190818181858888f19350505050158015610fd3573d6000803e3d6000fd5b50565b6109cf838383604051806020016040528060008152506121f4565b6000818152600e602052604090206004810154600160a01b900460ff166110895761106d4262015180613a3d565b600182015542808255611083906202a300613a3d565b60028201555b6000828152600d60205260409020600501543410156110f65760405162461bcd60e51b8152602060048201526024808201527f626964207072696365206973206c657373207468616e2063757272656e7420706044820152637269636560e01b6064820152608401610899565b428160010154101561114a5760405162461bcd60e51b815260206004820152601760248201527f646561646c696e6520616c7265616479207061737365640000000000000000006044820152606401610899565b60048101805460ff60a01b1916600160a01b17905560005b60068201548110156112f55760048201546006830180546001600160a01b0390921691839081106111a357634e487b7160e01b600052603260045260246000fd5b6000918252602090912001546001600160a01b03161480156111f5575081600301548260050182815481106111e857634e487b7160e01b600052603260045260246000fd5b9060005260206000200154145b156112e357600082600601828154811061121f57634e487b7160e01b600052603260045260246000fd5b6000918252602080832090910154868352600f909152604082206006860180546001600160a01b039093169391928690811061126b57634e487b7160e01b600052603260045260246000fd5b6000918252602080832091909101546001600160a01b0316835282019290925260409081018220549051909181818185875af1925050503d80600081146112ce576040519150601f19603f3d011682016040523d82523d6000602084013e6112d3565b606091505b50509050806112e157600080fd5b505b806112ed81613ae7565b915050611162565b506000600382018190556004820180546001600160a01b0319169055828152600f6020908152604080832033845290915290205415611398576000828152600f602090815260408083203380855292528083205490518381818185875af1925050503d8060008114611383576040519150601f19603f3d011682016040523d82523d6000602084013e611388565b606091505b505090508061139657600080fd5b505b6000828152600f60209081526040808320338452909152902034905560058101546113dc573460038201556004810180546001600160a01b0319163317905561149a565b60058101546000906113f090600190613a69565b90503482600501828154811061141657634e487b7160e01b600052603260045260246000fd5b90600052602060002001541061147e5760405162461bcd60e51b815260206004820152602760248201527f43757272656e74206d61782062696420697320686967686572207468616e20796044820152661bdd5c88189a5960ca1b6064820152608401610899565b503460038201556004810180546001600160a01b031916331790555b600681018054600181810183556000928352602080842090920180546001600160a01b03191633179055600590930180549384018155825290203491015550565b606060006114e860075490565b905060008060005b8381101561154b5733600d6000611508846001613a3d565b81526020810191909152604001600020600101546001600160a01b0316141561153957611536600184613a3d565b92505b8061154381613ae7565b9150506114f0565b5060008267ffffffffffffffff81111561157557634e487b7160e01b600052604160045260246000fd5b6040519080825280602002602001820160405280156115ae57816020015b61159b6131a8565b8152602001906001900390816115935790505b50905060005b84811015610b865733600d60006115cc846001613a3d565b81526020810191909152604001600020600101546001600160a01b031614156116c25760006115fc826001613a3d565b6000818152600d6020908152604091829020825161010080820185528254825260018301546001600160a01b039081169483019490945260028301548416948201949094526003820154909216606083015260048101546080830152600581015460a0830152600681015460ff808216151560c0850152939004909216151560e0820152855192935090918590879081106116a757634e487b7160e01b600052603260045260246000fd5b60209081029190910101526116bd600186613a3d565b945050505b806116cc81613ae7565b9150506115b4565b6000818152600e602052604090206116ef4262015180613a3d565b816001015410156117685760405162461bcd60e51b815260206004820152603c60248201527f796f752063616e277420576974686472617720796f757220626964206265666f60448201527f7265203234206872732066726f6d2061756374696f6e20656e646564000000006064820152608401610899565b60048101546001600160a01b031633146117945760405162461bcd60e51b8152600401610899906138c6565b60005b60068201548110156118ee5760048201546006830180546001600160a01b0390921691839081106117d857634e487b7160e01b600052603260045260246000fd5b6000918252602090912001546001600160a01b031614156118dc57600082600601828154811061181857634e487b7160e01b600052603260045260246000fd5b6000918252602080832090910154868352600f909152604082206006860180546001600160a01b039093169391928690811061186457634e487b7160e01b600052603260045260246000fd5b6000918252602080832091909101546001600160a01b0316835282019290925260409081018220549051909181818185875af1925050503d80600081146118c7576040519150601f19603f3d011682016040523d82523d6000602084013e6118cc565b606091505b50509050806118da57600080fd5b505b806118e681613ae7565b915050611797565b506000600382015560040180546001600160a01b031916905550565b6000818152600260205260408120546001600160a01b0316806107995760405162461bcd60e51b815260206004820152602960248201527f4552433732313a206f776e657220717565727920666f72206e6f6e657869737460448201526832b73a103a37b5b2b760b91b6064820152608401610899565b60006001600160a01b0382166119ec5760405162461bcd60e51b815260206004820152602a60248201527f4552433732313a2062616c616e636520717565727920666f7220746865207a65604482015269726f206164647265737360b01b6064820152608401610899565b506001600160a01b031660009081526003602052604090205490565b6000611a18600780546001019055565b6000611a2360075490565b9050611a2f3382612b93565b611a398185612cc6565b611a438184610db9565b9392505050565b600c546001600160a01b03163314611a6157600080fd5b600955565b6000828152600d60205260409020600201546001600160a01b03163314611a9f5760405162461bcd60e51b8152600401610899906138c6565b6009543414611ac05760405162461bcd60e51b815260040161089990613910565b6000828152600d6020526040902060068101805461ffff191690556001810180546001600160a01b0319908116331790915560028201805490911630179055600501819055611b0f6008612d51565b604080516101008101825260008082526020808301829052828401829052606083018290526080830182905260a083018290528351828152808201855260c08401528351918252810190925260e0810191909152611b6e3330856129f7565b6000838152600e60209081526040918290208351815581840151600182015591830151600283015560608301516003830155608083015160048301805460a08601511515600160a01b026001600160a81b03199091166001600160a01b039093169290921791909117905560c08301518051849392611bf49260058501929101906131ec565b5060e08201518051611c10916006840191602090910190613237565b505050505050565b600c546001600160a01b03163314611c2f57600080fd5b600a55565b6060600180546107ae90613aac565b6000818152600e60209081526040808320600d909252909120600101546001600160a01b03163314611ca45760405162461bcd60e51b815260206004820152600a6024820152692737ba1039b2b63632b960b11b6044820152606401610899565b6004810154600160a01b900460ff16611cf45760405162461bcd60e51b815260206004820152601260248201527161756374696f6e206e6f742061637469766560701b6044820152606401610899565b60048101805460ff60a01b1916905560005b6006820154811015611e5d5760048201546006830180546001600160a01b039092169183908110611d4757634e487b7160e01b600052603260045260246000fd5b6000918252602090912001546001600160a01b03161415611e4b576000826006018281548110611d8757634e487b7160e01b600052603260045260246000fd5b6000918252602080832090910154868352600f909152604082206006860180546001600160a01b0390931693919286908110611dd357634e487b7160e01b600052603260045260246000fd5b6000918252602080832091909101546001600160a01b0316835282019290925260409081018220549051909181818185875af1925050503d8060008114611e36576040519150601f19603f3d011682016040523d82523d6000602084013e611e3b565b606091505b5050905080611e4957600080fd5b505b80611e5581613ae7565b915050611d06565b506000828152600d602052604090206001810154600290910180546001600160a01b0319166001600160a01b03909216919091179055611ea1600880546001019055565b6000828152600d602052604090819020600101549051632142170760e11b815230600482018190526001600160a01b039092166024820152604481018490526342842e0e90606401600060405180830381600087803b158015611f0357600080fd5b505af1158015611f17573d6000803e3d6000fd5b50505050806006016000611f2b919061328c565b6000600382015560040180546001600160a01b031916905550565b6000818152600e60209081526040808320600d909252909120600101548291906001600160a01b03163314611faa5760405162461bcd60e51b815260206004820152600a6024820152692737ba1039b2b63632b960b11b6044820152606401610899565b6004810154600160a01b900460ff16611ffa5760405162461bcd60e51b815260206004820152601260248201527161756374696f6e206e6f742061637469766560701b6044820152606401610899565b60048101805460ff60a01b1916905560058101546120b3576000838152600d6020526040808220600101805485845282842060020180546001600160a01b0319166001600160a01b0392831617905592869052549051632142170760e11b8152306004820181905291909216602483015260448201859052906342842e0e90606401600060405180830381600087803b15801561209657600080fd5b505af11580156120aa573d6000803e3d6000fd5b505050506121b9565b6000838152600d602052604080822060010154600384015491516001600160a01b0390911691908381818185875af1925050503d8060008114612112576040519150601f19603f3d011682016040523d82523d6000602084013e612117565b606091505b505090508061212557600080fd5b600482810180546000868152600d60205260409081902060020180546001600160a01b0319166001600160a01b0393841617905591549151632142170760e11b81523093810184905291166024820152604481018690526342842e0e90606401600060405180830381600087803b15801561219f57600080fd5b505af11580156121b3573d6000803e3d6000fd5b50505050505b600060038201556004810180546001600160a01b03191690556121e0600880546001019055565b6109cf82610f5e565b610fd3338383612da8565b6121fe338361290e565b61221a5760405162461bcd60e51b815260040161089990613954565b61222684848484612e77565b50505050565b6000818152600d6020526040902060048101546001909101546001600160a01b03163482146122c5576040805162461bcd60e51b81526020600482015260248101919091527f506c65617365207375626d6974207468652061736b696e67207072696365206960448201527f6e206f7264657220746f20636f6d706c657465207468652070757263686173656064820152608401610899565b6000838152600d602052604090206006015460ff61010090910416151560011461233c5760405162461bcd60e51b815260206004820152602260248201527f6d61726b657473656c6c20697320696e41637469766520646f20706c616365426044820152611a5960f21b6064820152608401610899565b6000838152600d602052604090206002810180546001600160a01b031990811633179091556006820180546001938401805490931690925561ffff19909116909117905561238e600880546001019055565b6123993033856129f7565b6040516001600160a01b038216903480156108fc02916000818181858888f193505050501580156123ce573d6000803e3d6000fd5b506109cf83610f5e565b60606123e382612883565b6124495760405162461bcd60e51b815260206004820152603160248201527f45524337323155524953746f726167653a2055524920717565727920666f72206044820152703737b732bc34b9ba32b73a103a37b5b2b760791b6064820152608401610899565b6000828152600660205260408120805461246290613aac565b80601f016020809104026020016040519081016040528092919081815260200182805461248e90613aac565b80156124db5780601f106124b0576101008083540402835291602001916124db565b820191906000526020600020905b8154815290600101906020018083116124be57829003601f168201915b5050505050905060006124f960408051602081019091526000815290565b905080516000141561250c575092915050565b81511561253e5780826040516020016125269291906137a6565b60405160208183030381529060405292505050919050565b61254784612eaa565b949350505050565b6125a26040518061010001604052806000815260200160008152602001600081526020016000815260200160006001600160a01b0316815260200160001515815260200160608152602001606081525090565b6000828152600e60209081526040808320815161010081018352815481526001820154818501526002820154818401526003820154606082015260048201546001600160a01b0381166080830152600160a01b900460ff16151560a08201526005820180548451818702810187019095528085529194929360c086019390929083018282801561265157602002820191906000526020600020905b81548152602001906001019080831161263d575b50505050508152602001600682018054806020026020016040519081016040528092919081815260200182805480156126b357602002820191906000526020600020905b81546001600160a01b03168152600190910190602001808311612695575b50505091909252509195945050505050565b600c546001600160a01b0316331461272d5760405162461bcd60e51b815260206004820152602560248201527f4f6e6c79204f776e65722043616e20506572666f726d2074686973204f70657260448201526430ba34b7b760d91b6064820152608401610899565b610fd381836128a0565b6000828152600d60205260409020600201546001600160a01b031633146127705760405162461bcd60e51b8152600401610899906138c6565b60095434146127915760405162461bcd60e51b815260040161089990613910565b6000828152600d60205260409020600681018054600483018490556001830180546001600160a01b0319908116331790915560029093018054909316301790925561ffff199091166101001790556127e96008612d51565b610fd33330846129f7565b6127fc6131a8565b506000908152600d6020908152604091829020825161010080820185528254825260018301546001600160a01b039081169483019490945260028301548416948201949094526003820154909216606083015260048101546080830152600581015460a08301526006015460ff808216151560c0840152929004909116151560e082015290565b6000908152600260205260409020546001600160a01b0316151590565b600081815260046020526040902080546001600160a01b0319166001600160a01b03841690811790915581906128d58261190a565b6001600160a01b03167f8c5be1e5ebec7d5bd14f71427d1e84f3dd0314c0f7b2291e5b200ac8c7c3b92560405160405180910390a45050565b600061291982612883565b61297a5760405162461bcd60e51b815260206004820152602c60248201527f4552433732313a206f70657261746f7220717565727920666f72206e6f6e657860448201526b34b9ba32b73a103a37b5b2b760a11b6064820152608401610899565b60006129858361190a565b9050806001600160a01b0316846001600160a01b031614806129cc57506001600160a01b0380821660009081526005602090815260408083209388168352929052205460ff165b806125475750836001600160a01b03166129e584610831565b6001600160a01b031614949350505050565b826001600160a01b0316612a0a8261190a565b6001600160a01b031614612a6e5760405162461bcd60e51b815260206004820152602560248201527f4552433732313a207472616e736665722066726f6d20696e636f72726563742060448201526437bbb732b960d91b6064820152608401610899565b6001600160a01b038216612ad05760405162461bcd60e51b8152602060048201526024808201527f4552433732313a207472616e7366657220746f20746865207a65726f206164646044820152637265737360e01b6064820152608401610899565b612adb6000826128a0565b6001600160a01b0383166000908152600360205260408120805460019290612b04908490613a69565b90915550506001600160a01b0382166000908152600360205260408120805460019290612b32908490613a3d565b909155505060008181526002602052604080822080546001600160a01b0319166001600160a01b0386811691821790925591518493918716917fddf252ad1be2c89b69c2b068fc378daa952ba7f163c4a11628f55a4df523b3ef91a4505050565b6001600160a01b038216612be95760405162461bcd60e51b815260206004820181905260248201527f4552433732313a206d696e7420746f20746865207a65726f20616464726573736044820152606401610899565b612bf281612883565b15612c3f5760405162461bcd60e51b815260206004820152601c60248201527f4552433732313a20746f6b656e20616c7265616479206d696e746564000000006044820152606401610899565b6001600160a01b0382166000908152600360205260408120805460019290612c68908490613a3d565b909155505060008181526002602052604080822080546001600160a01b0319166001600160a01b03861690811790915590518392907fddf252ad1be2c89b69c2b068fc378daa952ba7f163c4a11628f55a4df523b3ef908290a45050565b612ccf82612883565b612d325760405162461bcd60e51b815260206004820152602e60248201527f45524337323155524953746f726167653a2055524920736574206f66206e6f6e60448201526d32bc34b9ba32b73a103a37b5b2b760911b6064820152608401610899565b600082815260066020908152604090912082516109cf928401906132aa565b805480612da05760405162461bcd60e51b815260206004820152601b60248201527f436f756e7465723a2064656372656d656e74206f766572666c6f7700000000006044820152606401610899565b600019019055565b816001600160a01b0316836001600160a01b03161415612e0a5760405162461bcd60e51b815260206004820152601960248201527f4552433732313a20617070726f766520746f2063616c6c6572000000000000006044820152606401610899565b6001600160a01b03838116600081815260056020908152604080832094871680845294825291829020805460ff191686151590811790915591519182527f17307eab39ab6107e8899845ad3d59bd9653f200f220920489ca2b5937696c31910160405180910390a3505050565b612e828484846129f7565b612e8e84848484612f81565b6122265760405162461bcd60e51b815260040161089990613874565b6060612eb582612883565b612f195760405162461bcd60e51b815260206004820152602f60248201527f4552433732314d657461646174613a2055524920717565727920666f72206e6f60448201526e3732bc34b9ba32b73a103a37b5b2b760891b6064820152608401610899565b6000612f3060408051602081019091526000815290565b90506000815111612f505760405180602001604052806000815250611a43565b80612f5a8461308e565b604051602001612f6b9291906137a6565b6040516020818303038152906040529392505050565b60006001600160a01b0384163b1561308357604051630a85bd0160e11b81526001600160a01b0385169063150b7a0290612fc59033908990889088906004016137d5565b602060405180830381600087803b158015612fdf57600080fd5b505af192505050801561300f575060408051601f3d908101601f1916820190925261300c918101906135d9565b60015b613069573d80801561303d576040519150601f19603f3d011682016040523d82523d6000602084013e613042565b606091505b5080516130615760405162461bcd60e51b815260040161089990613874565b805181602001fd5b6001600160e01b031916630a85bd0160e11b149050612547565b506001949350505050565b6060816130b25750506040805180820190915260018152600360fc1b602082015290565b8160005b81156130dc57806130c681613ae7565b91506130d59050600a83613a55565b91506130b6565b60008167ffffffffffffffff81111561310557634e487b7160e01b600052604160045260246000fd5b6040519080825280601f01601f19166020018201604052801561312f576020820181803683370190505b5090505b841561254757613144600183613a69565b9150613151600a86613b02565b61315c906030613a3d565b60f81b81838151811061317f57634e487b7160e01b600052603260045260246000fd5b60200101906001600160f81b031916908160001a9053506131a1600a86613a55565b9450613133565b6040805161010081018252600080825260208201819052918101829052606081018290526080810182905260a0810182905260c0810182905260e081019190915290565b828054828255906000526020600020908101928215613227579160200282015b8281111561322757825182559160200191906001019061320c565b5061323392915061331d565b5090565b828054828255906000526020600020908101928215613227579160200282015b8281111561322757825182546001600160a01b0319166001600160a01b03909116178255602090920191600190910190613257565b5080546000825590600052602060002090810190611021919061331d565b8280546132b690613aac565b90600052602060002090601f0160209004810192826132d85760008555613227565b82601f106132f157805160ff1916838001178555613227565b82800160010185558215613227579182018281111561322757825182559160200191906001019061320c565b5b80821115613233576000815560010161331e565b600067ffffffffffffffff8084111561334d5761334d613b42565b604051601f8501601f19908116603f0116810190828211818310171561337557613375613b42565b8160405280935085815286868601111561338e57600080fd5b858560208301376000602087830101525050509392505050565b80356001600160a01b03811681146133bf57600080fd5b919050565b6000602082840312156133d5578081fd5b611a43826133a8565b600080604083850312156133f0578081fd5b6133f9836133a8565b9150613407602084016133a8565b90509250929050565b600080600060608486031215613424578081fd5b61342d846133a8565b925061343b602085016133a8565b9150604084013590509250925092565b600080600080600060808688031215613462578081fd5b61346b866133a8565b9450613479602087016133a8565b935060408601359250606086013567ffffffffffffffff8082111561349c578283fd5b818801915088601f8301126134af578283fd5b8135818111156134bd578384fd5b8960208285010111156134ce578384fd5b9699959850939650602001949392505050565b600080600080608085870312156134f6578384fd5b6134ff856133a8565b935061350d602086016133a8565b925060408501359150606085013567ffffffffffffffff81111561352f578182fd5b8501601f8101871361353f578182fd5b61354e87823560208401613332565b91505092959194509250565b6000806040838503121561356c578182fd5b613575836133a8565b915060208301358015158114613589578182fd5b809150509250929050565b600080604083850312156135a6578182fd5b6135af836133a8565b946020939093013593505050565b6000602082840312156135ce578081fd5b8135611a4381613b58565b6000602082840312156135ea578081fd5b8151611a4381613b58565b60008060408385031215613607578182fd5b823567ffffffffffffffff81111561361d578283fd5b8301601f8101851361362d578283fd5b61363c85823560208401613332565b95602094909401359450505050565b60006020828403121561365c578081fd5b5035919050565b60008060408385031215613675578182fd5b82359150613407602084016133a8565b60008060408385031215613697578182fd5b50508035926020909101359150565b6000815180845260208085019450808401835b838110156136de5781516001600160a01b0316875295820195908201906001016136b9565b509495945050505050565b6000815180845260208085019450808401835b838110156136de578151875295820195908201906001016136fc565b60008151808452613730816020860160208601613a80565b601f01601f19169290920160200192915050565b80518252602081015160018060a01b03808216602085015280604084015116604085015280606084015116606085015250506080810151608083015260a081015160a083015260c0810151151560c083015260e0810151151560e08301525050565b600083516137b8818460208801613a80565b8351908301906137cc818360208801613a80565b01949350505050565b6001600160a01b038581168252841660208201526040810183905260806060820181905260009061380890830184613718565b9695505050505050565b6020808252825182820181905260009190848201906040850190845b8181101561385557613841838551613744565b92840192610100929092019160010161382e565b50909695505050505050565b602081526000611a436020830184613718565b60208082526032908201527f4552433732313a207472616e7366657220746f206e6f6e20455243373231526560408201527131b2b4bb32b91034b6b83632b6b2b73a32b960711b606082015260800190565b6020808252602a908201527f4f6e6c79206974656d206f776e65722063616e20706572666f726d20746869736040820152691037b832b930ba34b7b760b11b606082015260800190565b60208082526024908201527f5072696365206d75737420626520657175616c20746f206c697374696e6720706040820152637269636560e01b606082015260800190565b60208082526031908201527f4552433732313a207472616e736665722063616c6c6572206973206e6f74206f6040820152701ddb995c881b9bdc88185c1c1c9bdd9959607a1b606082015260800190565b61010081016107998284613744565b602081528151602082015260208201516040820152604082015160608201526060820151608082015260018060a01b0360808301511660a0820152600060a0830151613a0460c084018215159052565b5060c08301516101008060e0850152613a216101208501836136e9565b915060e0850151601f19858403018286015261380883826136a6565b60008219821115613a5057613a50613b16565b500190565b600082613a6457613a64613b2c565b500490565b600082821015613a7b57613a7b613b16565b500390565b60005b83811015613a9b578181015183820152602001613a83565b838111156122265750506000910152565b600181811c90821680613ac057607f821691505b60208210811415613ae157634e487b7160e01b600052602260045260246000fd5b50919050565b6000600019821415613afb57613afb613b16565b5060010190565b600082613b1157613b11613b2c565b500690565b634e487b7160e01b600052601160045260246000fd5b634e487b7160e01b600052601260045260246000fd5b634e487b7160e01b600052604160045260246000fd5b6001600160e01b03198116811461102157600080fdfea2646970667358221220f0e73d23b97c341c1556f636cb69155c3e9af6db9cdbcdeb6012aec298ea06e664736f6c63430008040033",
  "linkReferences": {},
  "deployedLinkReferences": {}
}